# Unsigned funding tx:
# 02000000023f05da71fb470a53807eb01db4a9220941e3737fa44bccd1fb00f1968c98396c0000000000ffffffff3f05da71fb470a53807eb01db4a9220941e3737fa44bccd1fb00f1968c98396c0100000000ffffffff0311260000000000001600140f0963bc774334ebc14d11ce940c35cfa69864151027000000000000160014d640ab16f347d1de5aba5a715321a5fc4ba9a5d54095160000000000220020c46bf3d1686d6dbb2d9244f8f67b90370c5aa2747045f1aeccb77d818711738200000000
#
# Signed Funding TX:
# 020000000001023f05da71fb470a53807eb01db4a9220941e3737fa44bccd1fb00f1968c98396c0000000000ffffffff3f05da71fb470a53807eb01db4a9220941e3737fa44bccd1fb00f1968c98396c0100000000ffffffff0311260000000000001600140f0963bc774334ebc14d11ce940c35cfa69864151027000000000000160014d640ab16f347d1de5aba5a715321a5fc4ba9a5d54095160000000000220020c46bf3d1686d6dbb2d9244f8f67b90370c5aa2747045f1aeccb77d8187117382024730440220540c10331cc111e911b545b2cd7024c112ee13ebcf6c2eab8c4870cc9bf30a2502204bb37fc94110ac74f2136656ad774ba1e94a099c552a556fb0d5001075c9a860012102d6a3c2d0cf7904ab6af54d7c959435a452b24a63194e1c4e7c337d3ebbb3017b02473044022070a0303780b12792c1c45db8d8ee48b8bc7faa9485048c8340d31f5fc55af22d02207f41ead98c7a4be218fcee92cd2a8201bca42c50243ca78ee5c2cc8628a6fb5601210308d79e1c98df471f4061d9b289a1b6423f727a5b47aabd2b539db4343a51a0e500000000
# 
# Txid:
# e5a3388f9f87302fd723298a90407f08c00a5373567bb64251e540388dcd9db4
#
# Variations on dual-funding open_channel2.
# Command line options: -f no-fuzz=true -f policy=exact -f fundsats=990000

1. block: height=102 tx=020000000001017b8705087f9bddd2777021d2a1dfefc2f1c5afa833b5c4ab00ccc8a556d042830000000000ffffffff0640420f000000000016001483440596268132e6c99d44dae2d151dabd9a2b2320a1070000000000160014ca5cc81df579bd589a428c0d29dceb81513fce8d60e3160000000000160014d1f40e954d7a792284b6fb19a2e0bf777441d83ea025260000000000160014c6e21030d1ed3a7afb19a3c425fab7b258e30764e0673500000000001600141664d29b4048d224341e0a20bf3d680b3293aaea788b7c29010000001600143ae8c2926dae014d88ff69169ef9a6928c18c09b024730440220308b88e0ebb318b6c75454485edcf39bfaa4c7a9acc9a050037e9107842f156402206c2217dea53a2a3e950b9e441e052c820b99cb5a470b4f513d16f6eb61671ef401210279be667ef9dcbbac55a06295ce870b07029bfcdb2dce28d959f2815b16f8179800000000

2. connect: privkey=0000000000000000000000000000000000000000000000000000000000000002
3. expect-send: type=init localfeatures=2000/3000 option_dual_fund/odd
3. expect-send: type=init localfeatures=1000/3000 option_dual_fund/even
    # Compulsory is OK
    1. recv: type=init globalfeatures= localfeatures=10aa
    # Optional is OK
    1. recv: type=init globalfeatures= localfeatures=20aa

4. maybe-send: type=gossip_timestamp_filter
   chain_hash=06226e46111a0b59caaf126043eb5bbf28c34f3a5e332a1fc7b2b73cf188910f

5. recv: type=open_channel2
   chain_hash=06226e46111a0b59caaf126043eb5bbf28c34f3a5e332a1fc7b2b73cf188910f
   temporary_channel_id=0000000000000000000000000000000000000000000000000000000000000000
   funding_satoshis=490000
   push_msat=0
   dust_limit_satoshis=546
   max_htlc_value_in_flight_msat=4294967295
   htlc_minimum_msat=0
   feerate_per_kw=253
   feerate_per_kw_funding=253
   to_self_delay=6
   max_accepted_htlcs=483
   # funding_privkey=0000000000000000000000000000000000000000000000000000000000000020
   funding_pubkey=03d30199d74fb5a22d47b6e054e2f378cedacffcb89904a61d75d0dbd407143e65
   # revocation_basepoint_secret=0000000000000000000000000000000000000000000000000000000000000021
   revocation_basepoint=021697ffa6fd9de627c077e3d2fe541084ce13300b0bec1146f95ae57f0d0bd6a5
   # payment_basepoint_secret=0000000000000000000000000000000000000000000000000000000000000022
   payment_basepoint=031be68a5a028f2601d0e80d468c344ba331d611b96c358b6032e8b4da0547fc11
   # delayed_payment_basepoint_secret=0000000000000000000000000000000000000000000000000000000000000023
   delayed_payment_basepoint=03605bdb019981718b986d0f07e834cb0d9deb8360ffb7f61df982345ef27a7479
   # htlc_basepoint_secret=0000000000000000000000000000000000000000000000000000000000000024
   htlc_basepoint=02e0392cfa338aaf2f0b56c563e3e5e67a5d5fefe3388f85d90c899da20f0198f9
   # shachain seed=0000000000000000000000000000000000000000000000000000000000000000
   # first per_commitment_secret=02a40c85b6f28da08dfdbe0926c53fab2de6d28c10301f8f7c4073d5e42e3148
   first_per_commitment_point=02037803a3228ec3a517835480ffac64c0557d9d75e0fe85861ab0be9eb224e6f8
   channel_flags=01
   opening_tlv=

6. expect-send: type=accept_channel2
   temporary_channel_id=0000000000000000000000000000000000000000000000000000000000000000
   funding_satoshis=990000
   dust_limit_satoshis=546
   max_htlc_value_in_flight_msat=18446744073709551615
   htlc_minimum_msat=0
   minimum_depth=3
   to_self_delay=6
   max_accepted_htlcs=483
   # funding_privkey=0000000000000000000000000000000000000000000000000000000000000010
   funding_pubkey=03e60fce93b59e9ec53011aabc21c23e97b2a31369b87a5ae9c44ee89e2a6dec0a
   # revocation_basepoint_secret=0000000000000000000000000000000000000000000000000000000000000011
   revocation_basepoint=03defdea4cdb677750a420fee807eacf21eb9898ae79b9768766e4faa04a2d4a34
   # payment_basepoint_secret=0000000000000000000000000000000000000000000000000000000000000012
   payment_basepoint=025601570cb47f238d2b0286db4a990fa0f3ba28d1a319f5e7cf55c2a2444da7cc
   # delayed_payment_basepoint_secret=0000000000000000000000000000000000000000000000000000000000000013
   delayed_payment_basepoint=022b4ea0a797a443d293ef5cff444f4979f06acfebd7e86d277475656138385b6c
   # htlc_basepoint_secret=0000000000000000000000000000000000000000000000000000000000000014
   htlc_basepoint=024ce119c96e2fa357200b559b2f7dd5a5f02d5290aff74b03f3e471b273211c97
   # shachain seed=ffffffffffffffffffffffffffffffffffffffffffffffffffffffffffffffff
   # first per_commitment_secret=7cc854b54e3e0dcdb010d7a3fee464a9687be6e8db3be6854c475621e007a5dc
   first_per_commitment_point=0288a618cb6027c3218a37cbe9e882379f17d87d03f6e99d0b60292478d2aded06
   accept_tlv=

7. recv: type=funding_add_input
   temporary_channel_id=0000000000000000000000000000000000000000000000000000000000000000
   # prevtx_txid=16835ac8c154b616baac524163f41fb0c4f82c7b972ad35d4d6f18d854f6856b
   input_info=[{sats=500000,prevtx_txid=3f05da71fb470a53807eb01db4a9220941e3737fa44bccd1fb00f1968c98396c,prevtx_vout=1,prevtx_scriptpubkey=0014ca5cc81df579bd589a428c0d29dceb81513fce8d,max_witness_len=109,script=}]

8. recv: type=funding_add_output
   temporary_channel_id=0000000000000000000000000000000000000000000000000000000000000000
   output_info=[{sats=9745,script=00140f0963bc774334ebc14d11ce940c35cfa6986415}]

9. recv: type=funding_add_complete
   temporary_channel_id=0000000000000000000000000000000000000000000000000000000000000000
   num_inputs=1
   num_outputs=1

10. expect-send: type=funding_add_input
   temporary_channel_id=0000000000000000000000000000000000000000000000000000000000000000
   input_info=[{sats=1000000,prevtx_txid=3f05da71fb470a53807eb01db4a9220941e3737fa44bccd1fb00f1968c98396c,prevtx_vout=0,prevtx_scriptpubkey=001483440596268132e6c99d44dae2d151dabd9a2b23,max_witness_len=109,script=}]

11. expect-send: type=funding_add_output
   temporary_channel_id=0000000000000000000000000000000000000000000000000000000000000000
   output_info=[{sats=10000,script=0014d640ab16f347d1de5aba5a715321a5fc4ba9a5d5}]

12. expect-send: type=funding_add_complete
   temporary_channel_id=0000000000000000000000000000000000000000000000000000000000000000
   num_outputs=1
   num_inputs=1

13. recv: type=commitment_signed
   channel_id=b49dcd8d3840e55142b67b5673530ac0087f40908a2923d72f30879f8f38a3e7
   signature=SIG(0000000000000000000000000000000000000000000000000000000000000020:85ae8da11be1c59ff019e381ff6564fa55d100f63e51bd3b5a0826857f42e1dd)
   htlc_signature=

14. expect-send: type=commitment_signed
   channel_id=b49dcd8d3840e55142b67b5673530ac0087f40908a2923d72f30879f8f38a3e7
   signature=SIG(0000000000000000000000000000000000000000000000000000000000000010:9836019cac8ea73cb23681617a93abecaeaf6bdc838d0ad6844ebef90f921df2)
   htlc_signature=

15. expect-send: type=funding_signed2
   channel_id=b49dcd8d3840e55142b67b5673530ac0087f40908a2923d72f30879f8f38a3e7
   witness_stack=[{prevtx_txid=3f05da71fb470a53807eb01db4a9220941e3737fa44bccd1fb00f1968c98396c,prevtx_vout=0,witness_element=[{witness=SIG(76edf0c303b9e692da9cb491abedef46ca5b81d32f102eb4648461b239cb0f99:c2634edb29fa7788b2ebb8f05c6815bbe35234ade55c02b259e95a75c93244c6)},{witness=02d6a3c2d0cf7904ab6af54d7c959435a452b24a63194e1c4e7c337d3ebbb3017b}]}]

16. block: height=103 n=3 tx=020000000001023f05da71fb470a53807eb01db4a9220941e3737fa44bccd1fb00f1968c98396c0000000000ffffffff3f05da71fb470a53807eb01db4a9220941e3737fa44bccd1fb00f1968c98396c0100000000ffffffff0311260000000000001600140f0963bc774334ebc14d11ce940c35cfa69864151027000000000000160014d640ab16f347d1de5aba5a715321a5fc4ba9a5d54095160000000000220020c46bf3d1686d6dbb2d9244f8f67b90370c5aa2747045f1aeccb77d8187117382024730440220540c10331cc111e911b545b2cd7024c112ee13ebcf6c2eab8c4870cc9bf30a2502204bb37fc94110ac74f2136656ad774ba1e94a099c552a556fb0d5001075c9a860012102d6a3c2d0cf7904ab6af54d7c959435a452b24a63194e1c4e7c337d3ebbb3017b02473044022070a0303780b12792c1c45db8d8ee48b8bc7faa9485048c8340d31f5fc55af22d02207f41ead98c7a4be218fcee92cd2a8201bca42c50243ca78ee5c2cc8628a6fb5601210308d79e1c98df471f4061d9b289a1b6423f727a5b47aabd2b539db4343a51a0e500000000

17. expect-send: type=funding_locked
   channel_id=b49dcd8d3840e55142b67b5673530ac0087f40908a2923d72f30879f8f38a3e7
   next_per_commitment_point=032405cbd0f41225d5f203fe4adac8401321a9e05767c5f8af97d51d2e81fbb206

18. recv: type=funding_locked
   channel_id=b49dcd8d3840e55142b67b5673530ac0087f40908a2923d72f30879f8f38a3e7
   next_per_commitment_point=027eed8389cf8eb715d73111b73d94d2c2d04bf96dc43dfd5b0970d80b3617009d

