# Variations on open_channel2.

1. block: height=102 tx=020000000001017b8705087f9bddd2777021d2a1dfefc2f1c5afa833b5c4ab00ccc8a556d042830000000000ffffffff0640420f000000000016001483440596268132e6c99d44dae2d151dabd9a2b2320a1070000000000160014ca5cc81df579bd589a428c0d29dceb81513fce8d60e3160000000000160014d1f40e954d7a792284b6fb19a2e0bf777441d83ea025260000000000160014c6e21030d1ed3a7afb19a3c425fab7b258e30764e0673500000000001600141664d29b4048d224341e0a20bf3d680b3293aaea788b7c29010000001600143ae8c2926dae014d88ff69169ef9a6928c18c09b024730440220308b88e0ebb318b6c75454485edcf39bfaa4c7a9acc9a050037e9107842f156402206c2217dea53a2a3e950b9e441e052c820b99cb5a470b4f513d16f6eb61671ef401210279be667ef9dcbbac55a06295ce870b07029bfcdb2dce28d959f2815b16f8179800000000

2. connect: privkey=0000000000000000000000000000000000000000000000000000000000000002
3. expect-send: type=init localfeatures=080000/0c0000 option_dual_fund/odd
3. expect-send: type=init localfeatures=040000/0c0000 option_dual_fund/even
    # Compulsory is OK
    1. recv: type=init globalfeatures= localfeatures=0400aa
    # Optional is OK
    1. recv: type=init globalfeatures= localfeatures=0800aa

4. maybe-send: type=gossip_timestamp_filter
   chain_hash=06226e46111a0b59caaf126043eb5bbf28c34f3a5e332a1fc7b2b73cf188910f

    1. fundchannel: utxo=6c39988c96f100fbd1cc4ba47f73e3410922a9b41db07e80530a47fb71da053f/0 
       amount=1000000
       feerate=1000perkw

    # Fee is taken out of funding amount
    2. expect-send: type=open_channel2
      chain_hash=06226e46111a0b59caaf126043eb5bbf28c34f3a5e332a1fc7b2b73cf188910f
      temporary_channel_id=0000000000000000000000000000000000000000000000000000000000000000
      funding_satoshis=1000000
      push_msat=0
      dust_limit_satoshis=546
      max_htlc_value_in_flight_msat=18446744073709551615
      htlc_minimum_msat=0
      feerate_per_kw=1000
      feerate_per_kw_funding=1000
      to_self_delay=6
      max_accepted_htlcs=483
      # funding_privkey=0000000000000000000000000000000000000000000000000000000000000010
      funding_pubkey=03e60fce93b59e9ec53011aabc21c23e97b2a31369b87a5ae9c44ee89e2a6dec0a
      # revocation_basepoint_secret=0000000000000000000000000000000000000000000000000000000000000011
      revocation_basepoint=03defdea4cdb677750a420fee807eacf21eb9898ae79b9768766e4faa04a2d4a34
      # payment_basepoint_secret=0000000000000000000000000000000000000000000000000000000000000012
      payment_basepoint=025601570cb47f238d2b0286db4a990fa0f3ba28d1a319f5e7cf55c2a2444da7cc
      # delayed_payment_basepoint_secret=0000000000000000000000000000000000000000000000000000000000000013
      delayed_payment_basepoint=022b4ea0a797a443d293ef5cff444f4979f06acfebd7e86d277475656138385b6c
      # htlc_basepoint_secret=0000000000000000000000000000000000000000000000000000000000000014
      htlc_basepoint=024ce119c96e2fa357200b559b2f7dd5a5f02d5290aff74b03f3e471b273211c97
      # shachain seed=ffffffffffffffffffffffffffffffffffffffffffffffffffffffffffffffff
      # first per_commitment_secret=7cc854b54e3e0dcdb010d7a3fee464a9687be6e8db3be6854c475621e007a5dc
      first_per_commitment_point=0288a618cb6027c3218a37cbe9e882379f17d87d03f6e99d0b60292478d2aded06
      channel_flags=01
      opening_tlv=

5. recv: type=accept_channel2
   temporary_channel_id=0000000000000000000000000000000000000000000000000000000000000000
   funding_satoshis=0
   dust_limit_satoshis=546
   max_htlc_value_in_flight_msat=18446744073709551615
   htlc_minimum_msat=0
   minimum_depth=3
   to_self_delay=6
   max_accepted_htlcs=483
   accept_tlv=
   # funding_privkey=0000000000000000000000000000000000000000000000000000000000000020
   funding_pubkey=03d30199d74fb5a22d47b6e054e2f378cedacffcb89904a61d75d0dbd407143e65
   # revocation_basepoint_secret=0000000000000000000000000000000000000000000000000000000000000021
   revocation_basepoint=021697ffa6fd9de627c077e3d2fe541084ce13300b0bec1146f95ae57f0d0bd6a5
   # payment_basepoint_secret=0000000000000000000000000000000000000000000000000000000000000022
   payment_basepoint=031be68a5a028f2601d0e80d468c344ba331d611b96c358b6032e8b4da0547fc11
   # delayed_payment_basepoint_secret=0000000000000000000000000000000000000000000000000000000000000023
   delayed_payment_basepoint=03605bdb019981718b986d0f07e834cb0d9deb8360ffb7f61df982345ef27a7479
   # htlc_basepoint_secret=0000000000000000000000000000000000000000000000000000000000000024
   htlc_basepoint=02e0392cfa338aaf2f0b56c563e3e5e67a5d5fefe3388f85d90c899da20f0198f9
   # shachain seed=0000000000000000000000000000000000000000000000000000000000000000
   # first per_commitment_secret=02a40c85b6f28da08dfdbe0926c53fab2de6d28c10301f8f7c4073d5e42e3148
   first_per_commitment_point=02037803a3228ec3a517835480ffac64c0557d9d75e0fe85861ab0be9eb224e6f8

    1. expect-send: type=funding_add_input
      temporary_channel_id=0000000000000000000000000000000000000000000000000000000000000000
      input_info=[{sats=1000000,prevtx_txid=3f05da71fb470a53807eb01db4a9220941e3737fa44bccd1fb00f1968c98396c,prevtx_vout=0,prevtx_scriptpubkey=001483440596268132e6c99d44dae2d151dabd9a2b23,max_witness_len=109,script=}]

    2. expect-send: type=funding_add_complete
      temporary_channel_id=0000000000000000000000000000000000000000000000000000000000000000
      num_inputs=1
      num_outputs=0

    3. recv: type=funding_add_complete
      temporary_channel_id=0000000000000000000000000000000000000000000000000000000000000000
      num_inputs=0
      num_outputs=0

    4. expect-send: type=commitment_signed
      channel_id=ec07b7150931a6a59f2a7a35d842c2abf2a4d88eabd6116adc61ab8cb76293aa
      signature=SIG(0000000000000000000000000000000000000000000000000000000000000010:c1e128d14fab03e364b8def7163b26356889ef6fd1f481ea540c4a84b6a0084a)
      htlc_signature=

    5. recv: type=commitment_signed
      channel_id=ec07b7150931a6a59f2a7a35d842c2abf2a4d88eabd6116adc61ab8cb76293aa
      signature=SIG(0000000000000000000000000000000000000000000000000000000000000020:7404c511ade996ace95856053f8ef7288e9e65df2b15e86c78077c6bea63394b)
      htlc_signature=
   
    6. recv: type=funding_signed2 
      channel_id=ec07b7150931a6a59f2a7a35d842c2abf2a4d88eabd6116adc61ab8cb76293aa
      witness_stack=

    7. block: height=103 n=3 tx=020000000001013f05da71fb470a53807eb01db4a9220941e3737fa44bccd1fb00f1968c98396c0000000000ffffffff0159400f0000000000220020c46bf3d1686d6dbb2d9244f8f67b90370c5aa2747045f1aeccb77d818711738202473044022067f28fbc91c1bf0c8cc1947c8598d2c786ae676844f47a6f835d9d6afad8b8b30220631fd171cac7a0e344cf0ca4e01bf2cc1681ff049b2e9ca5ee884402698fc6fe012102d6a3c2d0cf7904ab6af54d7c959435a452b24a63194e1c4e7c337d3ebbb3017b00000000

    8. recv: type=funding_locked
      channel_id=ec07b7150931a6a59f2a7a35d842c2abf2a4d88eabd6116adc61ab8cb76293aa
      next_per_commitment_point=027eed8389cf8eb715d73111b73d94d2c2d04bf96dc43dfd5b0970d80b3617009d

    9. expect-send: type=funding_locked
      channel_id=ec07b7150931a6a59f2a7a35d842c2abf2a4d88eabd6116adc61ab8cb76293aa
      next_per_commitment_point=032405cbd0f41225d5f203fe4adac8401321a9e05767c5f8af97d51d2e81fbb206
