# Unsigned funding tx:
# 020000000451e9e94af2fbef69f74fa0c5aa955f1fc169df751461daaaf659bea2ee83f9070000000000ffffffff51e9e94af2fbef69f74fa0c5aa955f1fc169df751461daaaf659bea2ee83f9070100000000ffffffff51e9e94af2fbef69f74fa0c5aa955f1fc169df751461daaaf659bea2ee83f9070200000000ffffffff51e9e94af2fbef69f74fa0c5aa955f1fc169df751461daaaf659bea2ee83f9070300000000ffffffff0388130000000000001600140f0963bc774334ebc14d11ce940c35cfa69864151027000000000000160014d640ab16f347d1de5aba5a715321a5fc4ba9a5d5960a4c0000000000220020c46bf3d1686d6dbb2d9244f8f67b90370c5aa2747045f1aeccb77d818711738200000000
#
# Signed Funding TX:
# 0200000000010451e9e94af2fbef69f74fa0c5aa955f1fc169df751461daaaf659bea2ee83f9070000000000ffffffff51e9e94af2fbef69f74fa0c5aa955f1fc169df751461daaaf659bea2ee83f9070100000000ffffffff51e9e94af2fbef69f74fa0c5aa955f1fc169df751461daaaf659bea2ee83f9070200000000ffffffff51e9e94af2fbef69f74fa0c5aa955f1fc169df751461daaaf659bea2ee83f9070300000000ffffffff0388130000000000001600140f0963bc774334ebc14d11ce940c35cfa69864151027000000000000160014d640ab16f347d1de5aba5a715321a5fc4ba9a5d5960a4c0000000000220020c46bf3d1686d6dbb2d9244f8f67b90370c5aa2747045f1aeccb77d81871173820247304402205889c3ecf2aad7e6d1e4d6cea90a48bb98d39969d6ce30bbad8168f63fd82fd8022063a8472a41aba90a1c6ab4aa2e8709428e5fc77d8836177e98e0afe837417686012102d6a3c2d0cf7904ab6af54d7c959435a452b24a63194e1c4e7c337d3ebbb3017b024730440220656ade68ac999e3ab06c95cf6ce8b12583083c5e6b6faff6105c04ef75350c2e02202f431052a351ea4cc5624dfa1ba98024390568af511927faccf6df557cc854230121038f1573b4238a986470d250ce87c7a91257b6ba3baf2a0b14380c4e1e532c209d0247304402204fbabb2484e2f68857d850afa8b6011a2fbbc1a9e1b3bcddd4864f68f3dfe65a02203cf5492c31cd34f37050aff9cf40687249cc9b77f674e724468b9289d3e73e5a01210308d79e1c98df471f4061d9b289a1b6423f727a5b47aabd2b539db4343a51a0e5024730440220470b4733c482cec2f31fcbb64082eb8203f7b3fce54ce9fbe3f76599f14ea5ba022052c5ef826a66f8a1631b399dbe2f42186af43091097f487c7504a863356626c5012103800783bd23793ae522213a303b450cf275d5cdd75cbc963ca26f43dbaa5921dd00000000
# 
# Txid:
# 3094a7874c66c2fb08e440601ae979e8d30fb1d65b1d718ff11eaa0a65927567
#
# Variations on dual-funding open_channel2.
# Command line options: -f no-fuzz=true -f policy=fundexact -f fundsats=2990000

1. block: height=102 tx=020000000001017b8705087f9bddd2777021d2a1dfefc2f1c5afa833b5c4ab00ccc8a556d042830000000000ffffffff0740420f000000000016001483440596268132e6c99d44dae2d151dabd9a2b2380841e0000000000160014fd9658fbd476d318f3b825b152b152aafa49bc9220a1070000000000160014ca5cc81df579bd589a428c0d29dceb81513fce8d60e3160000000000160014d1f40e954d7a792284b6fb19a2e0bf777441d83ea025260000000000160014c6e21030d1ed3a7afb19a3c425fab7b258e30764e0673500000000001600141664d29b4048d224341e0a20bf3d680b3293aaeaf8065e29010000001600143ae8c2926dae014d88ff69169ef9a6928c18c09b0247304402206c9c336b7d1e3ce0c4614713662b04f14085f72276527c4818149e9260c6d3ae02201de427164ff1e28078070d7014a75dfa13a5877b1b243c8d44ced296e2c60fdb01210279be667ef9dcbbac55a06295ce870b07029bfcdb2dce28d959f2815b16f8179800000000

2. wait-funds: timeout=5

3. connect: privkey=0000000000000000000000000000000000000000000000000000000000000002
4. expect-send: type=init localfeatures=20000000/30000000 option_dual_fund/odd
4. expect-send: type=init localfeatures=10000000/30000000 option_dual_fund/even
    # Compulsory is OK
    1. recv: type=init globalfeatures= localfeatures=100000aa
    # Optional is OK
    1. recv: type=init globalfeatures= localfeatures=200000aa

5. maybe-send: type=gossip_timestamp_filter
   chain_hash=06226e46111a0b59caaf126043eb5bbf28c34f3a5e332a1fc7b2b73cf188910f

6. recv: type=open_channel2
   chain_hash=06226e46111a0b59caaf126043eb5bbf28c34f3a5e332a1fc7b2b73cf188910f
   temporary_channel_id=0000000000000000000000000000000000000000000000000000000000000000
   funding_satoshis=1995000
   push_msat=0
   dust_limit_satoshis=546
   max_htlc_value_in_flight_msat=4294967295
   htlc_minimum_msat=0
   feerate_per_kw=1000
   feerate_per_kw_funding=1000
   # Maybe omit this field?
   contrib_count=4
   to_self_delay=6
   max_accepted_htlcs=483
   # funding_privkey=0000000000000000000000000000000000000000000000000000000000000020
   funding_pubkey=03d30199d74fb5a22d47b6e054e2f378cedacffcb89904a61d75d0dbd407143e65
   # revocation_basepoint_secret=0000000000000000000000000000000000000000000000000000000000000021
   revocation_basepoint=021697ffa6fd9de627c077e3d2fe541084ce13300b0bec1146f95ae57f0d0bd6a5
   # payment_basepoint_secret=0000000000000000000000000000000000000000000000000000000000000022
   payment_basepoint=031be68a5a028f2601d0e80d468c344ba331d611b96c358b6032e8b4da0547fc11
   # delayed_payment_basepoint_secret=0000000000000000000000000000000000000000000000000000000000000023
   delayed_payment_basepoint=03605bdb019981718b986d0f07e834cb0d9deb8360ffb7f61df982345ef27a7479
   # htlc_basepoint_secret=0000000000000000000000000000000000000000000000000000000000000024
   htlc_basepoint=02e0392cfa338aaf2f0b56c563e3e5e67a5d5fefe3388f85d90c899da20f0198f9
   # shachain seed=0000000000000000000000000000000000000000000000000000000000000000
   # first per_commitment_secret=02a40c85b6f28da08dfdbe0926c53fab2de6d28c10301f8f7c4073d5e42e3148
   first_per_commitment_point=02037803a3228ec3a517835480ffac64c0557d9d75e0fe85861ab0be9eb224e6f8
   channel_flags=01
   opening_tlv=

7. expect-send: type=accept_channel2
   temporary_channel_id=0000000000000000000000000000000000000000000000000000000000000000
   funding_satoshis=2990000
   dust_limit_satoshis=546
   max_htlc_value_in_flight_msat=18446744073709551615
   htlc_minimum_msat=0
   minimum_depth=3
   to_self_delay=6
   max_accepted_htlcs=483
   # funding_privkey=0000000000000000000000000000000000000000000000000000000000000010
   funding_pubkey=03e60fce93b59e9ec53011aabc21c23e97b2a31369b87a5ae9c44ee89e2a6dec0a
   # revocation_basepoint_secret=0000000000000000000000000000000000000000000000000000000000000011
   revocation_basepoint=03defdea4cdb677750a420fee807eacf21eb9898ae79b9768766e4faa04a2d4a34
   # payment_basepoint_secret=0000000000000000000000000000000000000000000000000000000000000012
   payment_basepoint=025601570cb47f238d2b0286db4a990fa0f3ba28d1a319f5e7cf55c2a2444da7cc
   # delayed_payment_basepoint_secret=0000000000000000000000000000000000000000000000000000000000000013
   delayed_payment_basepoint=022b4ea0a797a443d293ef5cff444f4979f06acfebd7e86d277475656138385b6c
   # htlc_basepoint_secret=0000000000000000000000000000000000000000000000000000000000000014
   htlc_basepoint=024ce119c96e2fa357200b559b2f7dd5a5f02d5290aff74b03f3e471b273211c97
   # shachain seed=ffffffffffffffffffffffffffffffffffffffffffffffffffffffffffffffff
   # first per_commitment_secret=7cc854b54e3e0dcdb010d7a3fee464a9687be6e8db3be6854c475621e007a5dc
   first_per_commitment_point=0288a618cb6027c3218a37cbe9e882379f17d87d03f6e99d0b60292478d2aded06
   opening_tlv=

8. recv: type=funding_compose
   temporary_channel_id=0000000000000000000000000000000000000000000000000000000000000000
   channel_reserve_satoshis=49834
   # prevtx_txid=16835ac8c154b616baac524163f41fb0c4f82c7b972ad35d4d6f18d854f6856b
   input_info=[{input_satoshis=500000,prevtx_txid=51e9e94af2fbef69f74fa0c5aa955f1fc169df751461daaaf659bea2ee83f907,prevtx_vout=2,prevtx_scriptpubkey=0014ca5cc81df579bd589a428c0d29dceb81513fce8d,max_witness_len=109,script=},{input_satoshis=1500000,prevtx_txid=51e9e94af2fbef69f74fa0c5aa955f1fc169df751461daaaf659bea2ee83f907,prevtx_vout=3,prevtx_scriptpubkey=0014d1f40e954d7a792284b6fb19a2e0bf777441d83e,max_witness_len=109,script=}]
   output_info=[{output_satoshis=5000,script=00140f0963bc774334ebc14d11ce940c35cfa6986415},{output_satoshis=0,script=0014d295f76da2319791f36df5759e45b15d5e105221}]

9. expect-send: type=funding_compose
   temporary_channel_id=0000000000000000000000000000000000000000000000000000000000000000
   channel_reserve_satoshis=49834
   input_info=[{input_satoshis=1000000,prevtx_txid=51e9e94af2fbef69f74fa0c5aa955f1fc169df751461daaaf659bea2ee83f907,prevtx_vout=0,prevtx_scriptpubkey=001483440596268132e6c99d44dae2d151dabd9a2b23,max_witness_len=109,script=},{input_satoshis=2000000,prevtx_txid=51e9e94af2fbef69f74fa0c5aa955f1fc169df751461daaaf659bea2ee83f907,prevtx_vout=1,prevtx_scriptpubkey=0014fd9658fbd476d318f3b825b152b152aafa49bc92,max_witness_len=109,script=}]
   output_info=[{output_satoshis=10000,script=0014d640ab16f347d1de5aba5a715321a5fc4ba9a5d5}]

10. recv: type=commitment_signed
   channel_id=677592650aaa1ef18f711d5bd6b10fd3e879e91a6040e408fbc2664c87a79432
   signature=0770e3c05de224676f8d949e6b2ae43b901d7cd4af2a01dac01217f244e2fd5c5f282510a50c03af28e971dc0070b418a7b7819e602d8a1d1b2a687335638766
   htlc_signature=

11. expect-send: type=commitment_signed
   channel_id=677592650aaa1ef18f711d5bd6b10fd3e879e91a6040e408fbc2664c87a79432
   signature=1a66f55dfa175e4daca6e12d923683326369c35a69d8dd6fae299bbfc54e80fa5299ef4800c5fd8272a34bb2e0a48951e19a50168be04981faf6dc1d26c6c76b
   htlc_signature=
   
# funding sig: 798d96d5a057b5b7797988a855217f41af05ece3ba8278366e2f69763c72e78565d5dd7eeddc0766ddf65557c92b9c52c301f23f94d2cf681860d32153e6ae1e
12. recv: type=funding_signed2
   channel_id=677592650aaa1ef18f711d5bd6b10fd3e879e91a6040e408fbc2664c87a79432
   witness_stack=[{witness_element=[{witness=304402204fbabb2484e2f68857d850afa8b6011a2fbbc1a9e1b3bcddd4864f68f3dfe65a02203cf5492c31cd34f37050aff9cf40687249cc9b77f674e724468b9289d3e73e5a01},{witness=0308d79e1c98df471f4061d9b289a1b6423f727a5b47aabd2b539db4343a51a0e5}]},{witness_element=[{witness=30440220470b4733c482cec2f31fcbb64082eb8203f7b3fce54ce9fbe3f76599f14ea5ba022052c5ef826a66f8a1631b399dbe2f42186af43091097f487c7504a863356626c501},{witness=03800783bd23793ae522213a303b450cf275d5cdd75cbc963ca26f43dbaa5921dd}]}]

13. expect-send: type=funding_signed2
   channel_id=677592650aaa1ef18f711d5bd6b10fd3e879e91a6040e408fbc2664c87a79432
   witness_stack=[{witness_element=[{witness=304402205889c3ecf2aad7e6d1e4d6cea90a48bb98d39969d6ce30bbad8168f63fd82fd8022063a8472a41aba90a1c6ab4aa2e8709428e5fc77d8836177e98e0afe83741768601},{witness=02d6a3c2d0cf7904ab6af54d7c959435a452b24a63194e1c4e7c337d3ebbb3017b}]},{witness_element=[{witness=30440220656ade68ac999e3ab06c95cf6ce8b12583083c5e6b6faff6105c04ef75350c2e02202f431052a351ea4cc5624dfa1ba98024390568af511927faccf6df557cc8542301},{witness=038f1573b4238a986470d250ce87c7a91257b6ba3baf2a0b14380c4e1e532c209d}]}]

# In theory, the accepter should broadcast this transaction for us.
14. block: height=103 n=3 tx=0200000000010451e9e94af2fbef69f74fa0c5aa955f1fc169df751461daaaf659bea2ee83f9070000000000ffffffff51e9e94af2fbef69f74fa0c5aa955f1fc169df751461daaaf659bea2ee83f9070100000000ffffffff51e9e94af2fbef69f74fa0c5aa955f1fc169df751461daaaf659bea2ee83f9070200000000ffffffff51e9e94af2fbef69f74fa0c5aa955f1fc169df751461daaaf659bea2ee83f9070300000000ffffffff0388130000000000001600140f0963bc774334ebc14d11ce940c35cfa69864151027000000000000160014d640ab16f347d1de5aba5a715321a5fc4ba9a5d5960a4c0000000000220020c46bf3d1686d6dbb2d9244f8f67b90370c5aa2747045f1aeccb77d81871173820247304402205889c3ecf2aad7e6d1e4d6cea90a48bb98d39969d6ce30bbad8168f63fd82fd8022063a8472a41aba90a1c6ab4aa2e8709428e5fc77d8836177e98e0afe837417686012102d6a3c2d0cf7904ab6af54d7c959435a452b24a63194e1c4e7c337d3ebbb3017b024730440220656ade68ac999e3ab06c95cf6ce8b12583083c5e6b6faff6105c04ef75350c2e02202f431052a351ea4cc5624dfa1ba98024390568af511927faccf6df557cc854230121038f1573b4238a986470d250ce87c7a91257b6ba3baf2a0b14380c4e1e532c209d0247304402204fbabb2484e2f68857d850afa8b6011a2fbbc1a9e1b3bcddd4864f68f3dfe65a02203cf5492c31cd34f37050aff9cf40687249cc9b77f674e724468b9289d3e73e5a01210308d79e1c98df471f4061d9b289a1b6423f727a5b47aabd2b539db4343a51a0e5024730440220470b4733c482cec2f31fcbb64082eb8203f7b3fce54ce9fbe3f76599f14ea5ba022052c5ef826a66f8a1631b399dbe2f42186af43091097f487c7504a863356626c5012103800783bd23793ae522213a303b450cf275d5cdd75cbc963ca26f43dbaa5921dd00000000

15. expect-send: type=funding_locked
   channel_id=677592650aaa1ef18f711d5bd6b10fd3e879e91a6040e408fbc2664c87a79432
   next_per_commitment_point=032405cbd0f41225d5f203fe4adac8401321a9e05767c5f8af97d51d2e81fbb206

16. recv: type=funding_locked
   channel_id=677592650aaa1ef18f711d5bd6b10fd3e879e91a6040e408fbc2664c87a79432
   next_per_commitment_point=027eed8389cf8eb715d73111b73d94d2c2d04bf96dc43dfd5b0970d80b3617009d

